:100000000C9463000C948B000C948B000C948B006C
:100010000C948B000C948B000C948B000C948B0034
:100020000C948B000C948B000C948B000C948B0024
:100030000C948B000C948B000C948B000C948B0014
:100040000C9449070C948B000C9417070C94F10640
:100050000C948B000C948B000C948B000C948B00F4
:100060000C9493070C948B000000000024002700E0
:100070002A0000000000250028002B0000000000DE
:1000800023002600290004040404040404040202DA
:100090000202020203030303030301020408102007
:1000A0004080010204081020010204081020000012
:1000B0000008000201000003040700000000000027
:1000C000000036093A0D11241FBECFEFD8E0DEBF85
:1000D000CDBF23E0A4E7B1E001C01D92AD36B20769
:1000E000E1F711E0A0E0B1E0EEE6F0E202C0059039
:1000F0000D92A437B107D9F710E0C2E6D0E004C0F2
:100100002197FE010E94290EC136D107C9F70E942E
:10011000F2090C942A100C940000E9E3F2E0A089A3
:10012000B18982E08C93A485B5851C92A685B7859C
:100130008FEC8C93108EA489B58986E08C93A2896C
:10014000B3898C9180618C93A289B3898C918860EA
:100150008C93A289B3898C9180688C930288F389EF
:10016000E02D80818F7D8083089596E0899FD00166
:100170001124AE51BD4F90967C936E935F9791E0A2
:1001800091969C939197E0914F03F0915003909139
:100190004E03992339F0309751F0811108C08091B6
:1001A000FE020994309719F05C968C91FACF08956D
:1001B000CF92DF92EF92FF920F931F9396E0899F69
:1001C000F0011124EE51FD4F11A2278D30A12130F5
:1001D000310551F178F02230310509F451C0233056
:1001E000310509F452C01F910F91FF90EF90DF90FD
:1001F000CF9008956623B9F361E070E00E94B500E6
:100200002FB7F8948091350290913602A091370271
:10021000B09138022FBF80933A0390933B03A09391
:100220003C03B0933D03DFCF9FB7F894C0903502F5
:10023000D0903602E0903702F09038029FBF0091D4
:100240003A0310913B0320913C0330913D03C01AC7
:10025000D10AE20AF30A00914C0310914D0330E0F9
:1002600020E00C151D052E053F0550F462E070E0FE
:100270001F910F91FF90EF90DF90CF900C94B500FD
:100280006111B1CF63E070E0F3CF70E060E0F0CFD8
:10029000AF92BF92CF92DF92EF92FF920F931F9394
:1002A000CF93DF936C017B018B01040F151FEB01D2
:1002B0005E01AE18BF08C017D10759F06991D60189
:1002C000ED91FC910190F081E02DC6010995892BFB
:1002D00079F7C501DF91CF911F910F91FF90EF90BA
:1002E000DF90CF90BF90AF90089508950895FC01DE
:1002F000538D448D252F30E0842F90E0821B930B8B
:10030000541710F0CF96089501970895FC01918D30
:10031000828D981761F0A28DAE0FBF2FB11D5D9633
:100320008C91928D9F5F9F73928F90E008958FEFD5
:100330009FEF0895FC01918D828D981731F0828D89
:10034000E80FF11D858D90E008958FEF9FEF0895E0
:10035000FC01918D228D892F90E0805C9F4F821B44
:1003600091098F739927089589E392E00E94A8016B
:1003700021E0892B09F420E0822F089580E090E0AD
:10038000892B29F00E94B40181110C94000008957A
:10039000FC01A48DA80FB92FB11DA35ABF4F2C91FA
:1003A000848D90E001968F739927848FA689B789F1
:1003B0002C93A089B1898C91837080648C93938DE8
:1003C000848D981306C00288F389E02D80818F7D8B
:1003D00080830895EF92FF920F931F93CF93DF9343
:1003E000EC0181E0888F9B8D8C8D98131AC0E88971
:1003F000F989808185FF15C09FB7F894EE89FF8940
:100400006083E889F98980818370806480839FBFDD
:1004100081E090E0DF91CF911F910F91FF90EF90DD
:100420000895F62E0B8D10E00F5F1F4F0F731127ED
:10043000E02E8C8D8E110CC00FB607FCFACFE88928
:10044000F989808185FFF5CFCE010E94C801F1CFE7
:10045000EB8DEC0FFD2FF11DE35AFF4FF0829FB79C
:10046000F8940B8FEA89FB8980818062CFCFCF938C
:10047000DF93EC01888D8823B9F0AA89BB89E889CC
:10048000F9898C9185FD03C0808186FD0DC00FB672
:1004900007FCF7CF8C9185FFF2CF808185FFEDCFF0
:1004A000CE010E94C801E9CFDF91CF91089583303A
:1004B00081F028F4813099F08230A9F008958730D6
:1004C000A9F08830C9F08430B1F4809180008F7D2C
:1004D00003C0809180008F7780938000089584B559
:1004E0008F7784BD089584B58F7DFBCF8091B00058
:1004F0008F778093B00008958091B0008F7DF9CF01
:10050000CF93DF93282F30E0F901E255FF4F84911C
:10051000F901E656FF4FD491F901EA57FF4FC49114
:10052000CC23A1F081110E945702EC2FF0E0EE0FD6
:10053000FF1FE458FF4FA591B491EC91ED2381E0AA
:1005400090E009F480E0DF91CF91089580E090E0A1
:10055000FACF862F0C9480021F93CF93DF93282F1E
:1005600030E0F901E255FF4F8491F901E656FF4F63
:10057000D491F901EA57FF4FC491CC23A9F0162F6B
:1005800081110E945702EC2FF0E0EE0FFF1FEE5892
:10059000FF4FA591B4918FB7F894EC91111108C059
:1005A000D095DE23DC938FBFDF91CF911F9108950B
:1005B000DE2BF8CF862F642F0C94AC02CF93DF9301
:1005C00090E0FC01E656FF4F24918A579F4FFC01B3
:1005D00084918823C9F090E0880F991FFC01E859A5
:1005E000FF4FA591B491FC01EE58FF4FC591D491F6
:1005F00061110DC09FB7F8948C91209582238C9344
:100600008881282328839FBFDF91CF91089562308E
:1006100051F49FB7F8943C91822F809583238C935B
:10062000E8812E2BEFCF8FB7F894EC912E2B2C93E3
:100630008FBFEACF862F642F0C94DE023FB7F89469
:100640008091270290912802A0912902B0912A025C
:1006500026B5A89B05C02F3F19F00196A11DB11D1D
:100660003FBFBA2FA92F982F8827BC01CD01620F59
:10067000711D811D911D42E0660F771F881F991F14
:100680004A95D1F708958F929F92AF92BF92CF92E1
:10069000DF92EF92FF924B015C010E941E036B01FF
:1006A0007C010E941E036C197D098E099F09683E1A
:1006B000734081059105A8F321E0821A9108A108F1
:1006C000B10888EEC80E83E0D81EE11CF11C81142D
:1006D0009104A104B10429F7FF90EF90DF90CF902F
:1006E000BF90AF909F908F9008952091DC01260FCE
:1006F0003327331F21323105ECF420910002FC0135
:1007000090E080E0243069F082E00895A091DC015F
:100710002191AC0144545E4FA40FB52FB11D2C9311
:100720000196861798F38091DC01680F6093DC01D5
:1007300080E0089581E008951092000281E08093A6
:1007400002021092010261E082E10E94AC0261E0CB
:1007500083E10E94AC02E9EBF0E080818E7F808330
:1007600080818D7F808388E48093B80085E48093C6
:10077000BC000895CF93DF9391E09093BB01882351
:10078000B9F0C091B800D091BA008091BC008A7BCA
:100790008093BC0060E082E10E94AC0260E083E1F3
:1007A0000E94AC020E949C03D093BA00C093B80090
:1007B000DF91CF9108950895E09132028091310246
:1007C000E81730F4F0E0EA56FE4F808190E008959B
:1007D0008FEF9FEF089590913202809131022FEFB9
:1007E0003FEF981748F4E92FF0E0EA56FE4F2081DA
:1007F00030E09F5F90933202C901089580913102E9
:1008000090913202891B990B0895CF92DF92EF925B
:10081000FF920F931F93CF93DF937C01CB018A014B
:1008200020919501222389F0EB016B01C40ED51EA6
:10083000CC15DD0569F06991D701ED91FC9101902E
:10084000F081E02DC7010995F3CF642F0E94750355
:10085000C801DF91CF911F910F91FF90EF90DF9032
:10086000CF900895CF93DF931F92CDB7DEB7698302
:10087000209195012223F9F020912F02203258F087
:1008800021E030E0FC013383228390E080E00F9090
:10089000DF91CF91089580913002E82FF0E0EB587E
:1008A000FE4F998190838F5F8093300280932F0257
:1008B00081E090E0ECCF61E0CE0101960E947503EB
:1008C000F7CFCF92DF92EF92FF920F931F93CF93C8
:1008D000DF93FC01C48121E020939501C093740152
:1008E0001092300210922F028385682B86ED92E0E1
:1008F0000E943204D0912F02D13208F092C00E949F
:100900001E036B017C0180910002811165C082E0B1
:100910008093000281E0809302028FEF8093FF01B9
:1009200010922402D0932302A5E7B1E0E3E0F2E0C5
:1009300080E0D81385C01092250280912502CC0F4B
:10094000C82BC093250280910102813009F07CC040
:10095000109201020E941E036B017C01809125020E
:100960008093BB008091B7019091B801A091B9012B
:10097000B091BA01892B8A2B8B2B99F00E941E0310
:100980000091B7011091B8012091B9013091BA01DD
:100990006C197D098E099F09061717072807390763
:1009A000E0F18091BC0083FDD9CF85EC8093BC0041
:1009B0000E941E036B017C0180910002823009F4C9
:1009C00045C08091FF018F3F61F18091FF0180322E
:1009D00041F18091FF0125C08091B7019091B8014C
:1009E000A091B901B091BA01892B8A2B8B2B09F404
:1009F0008ACF0E941E030091B7011091B801209187
:100A0000B9013091BA016C197D098E099F09061749
:100A100017072807390708F076CF8091B6010E94A2
:100A2000BA031092300210922F0210929501DF91BA
:100A3000CF911F910F91FF90EF90DF90CF9008958D
:100A40009D9191938F5F75CF85EEB0CF8091B70167
:100A50009091B801A091B901B091BA01892B8A2B6C
:100A60008B2B09F4A9CF0E941E030091B7011091AE
:100A7000B8012091B9013091BA016C197D098E0934
:100A80009F09061717072807390708F095CFC5CF24
:100A9000089590E080E008950F931F93CF938C0109
:100AA000C62F0E9461046C2F6460C8010E9461041B
:100AB0006C2F6B7FC8010E94610483EC90E001976A
:100AC000F1F7CF911F910F9108950F931F93CF933B
:100AD000DF938C01D62FC42F607F642B0E944C05BE
:100AE00080E1D89FB00111246C2BC801DF91CF9118
:100AF0001F910F910C944C05CF93DF93CDB7DEB7C8
:100B000028970FB6F894DEBF0FBECDBF98E0E0E2A5
:100B1000F1E0DE01119601900D929A95E1F7909126
:100B20006503961710F46FEF690F262F30E0220F40
:100B3000331F41E050E04C0F5D1F240F351FF901BA
:100B40006081680F606840E08DE593E028960FB6FD
:100B5000F894DEBF0FBECDBFDF91CF910C94650539
:100B600041E00E94650581E090E0089541E0682F32
:100B70008DE593E00E94650581E090E0089540E0F6
:100B800061E08DE593E00E9465058BE39FE10197AD
:100B9000F1F70895FC0101900020E9F73197AF01CA
:100BA000481B590BBC018DE593E00C94480160E0B3
:100BB00080E00E947C0582E691E00E94CA0568EE12
:100BC00073E080E090E00E9443030E94BF0560E074
:100BD00087E00E947C05809101010E94B60560E0DB
:100BE0008FE00E947C058DE30E94B60560E080E006
:100BF0000C947C05EF92FF921F93CF93DF93EC014F
:100C00007B01142FCE15DF0554F4612F8C2F0E9429
:100C10007C0580E791E00E94CA052196F3CFDF9121
:100C2000CF911F91FF90EF9008950F931F93CF9353
:100C3000DF93EC0188819981009759F02A813B81EB
:100C40002617370730F081E0DF91CF911F910F9188
:100C500008958B016F5F7F4F0E94540F009759F0EA
:100C6000998388831B830A832C813D81232B59F729
:100C7000FC011082E8CF80E0E7CFCF93DF93EC0157
:100C8000198218821B821A821D821C8270E060E029
:100C90000E9415062881398181110FC02115310567
:100CA00019F0C9010E94CB0E198218821D821C8284
:100CB0001B821A82DF91CF9108951D821C8261E709
:100CC00071E0C901DF91CF910C942310CF93DF9392
:100CD000EC0170E060E00E941506288139818111E5
:100CE0000FC02115310519F0C9010E94CB0E1982E0
:100CF00018821D821C821B821A82DF91CF91089577
:100D00001D821C8261E771E0C901DF91CF910C94D3
:100D10002310EF92FF920F931F93CF93DF9300D096
:100D2000CDB7DEB78C0169831A82FC01E480F580BF
:100D3000FFEFEF1AFF0AB7010E941506882381F022
:100D4000F8012081318184819581BE016F5F7F4FE1
:100D5000820F931F0E942310F801F582E48281E044
:100D60000F900F90DF91CF911F910F91FF90EF9017
:100D7000089585ED8093BC008091B7019091B801F2
:100D8000A091B901B091BA010796A11DB11D23E050
:100D9000B695A795979587952A95D1F72091BC0090
:100DA00024FD03C01092000208954091B7015091B4
:100DB000B8016091B9017091BA01452B462B472BC0
:100DC00069F30097A105B10541F025E32A95F1F7F4
:100DD00000000197A109B109E1CF8091B6010C94FF
:100DE000BA031F920F920FB60F9211242F933F93C5
:100DF0004F935F936F937F938F939F93AF93BF9323
:100E0000EF93FF9389E392E00E94C801FF91EF9175
:100E1000BF91AF919F918F917F916F915F914F9112
:100E20003F912F910F900FBE0F901F9018951F921A
:100E30000F920FB60F9211242F938F939F93EF93DE
:100E4000FF93E0914902F0914A028081E0914F02C4
:100E5000F091500282FD1BC09081809152028F5F01
:100E60008F7320915302821741F0E0915202F0E01B
:100E7000E75CFD4F958F80935202FF91EF919F9118
:100E80008F912F910F900FBE0F901F90189580811A
:100E9000F4CF1F920F920FB60F9211242F933F930E
:100EA0008F939F93AF93BF938091350290913602B9
:100EB000A0913702B09138023091260223E0230F2F
:100EC0002D3758F50196A11DB11D20932602809360
:100ED000350290933602A0933702B0933802809186
:100EE000270290912802A0912902B0912A0201962E
:100EF000A11DB11D8093270290932802A09329027F
:100F0000B0932A02BF91AF919F918F913F912F9102
:100F10000F900FBE0F901F90189526E8230F029692
:100F2000A11DB11DD2CF1F920F920FB60F921124A7
:100F30002F933F934F935F936F937F938F939F93E1
:100F4000AF93BF93EF93FF938091B900887F803672
:100F500009F44AC0F0F5883209F4A7C018F58031C9
:100F600009F49BC0B8F4882309F4F9C0883009F467
:100F700094C0FF91EF91BF91AF919F918F917F911D
:100F80006F915F914F913F912F910F900FBE0F90F6
:100F90001F901895883109F488C0803251F78093EA
:100FA000FF0114C0803409F49DC040F48033B9F3CC
:100FB0008833F9F68093FF0185ECB0C0803509F4E1
:100FC00085C0883509F496C0883499F60E94B90620
:100FD000D0CF883909F48CC038F5883729F050F41F
:100FE000883611F0803729F683E080930002109252
:100FF000FE0157C0883809F47BC0803919F0803869
:1010000009F0B7CF8091FE01803208F071C0E09105
:10101000FE0181E08E0F8093FE018091BB00F0E025
:10102000E252FE4F80833DC0803B39F0E0F4803ACD
:1010300009F479C0883A09F09CCF84E080930002DB
:101040001092DD011092DC01E0912D02F0912E0250
:1010500009958091DC0181110FC081E08093DC0152
:101060001092BC0109C0803C09F4A6CF883C09F469
:10107000A3CF883B09F07DCFE091DD0181E08E0FA9
:101080008093DD01F0E0E454FE4F80818093BB004B
:101090009091DD018091DC0129C08091250280932F
:1010A000BB0085EC8093BC0064CF909124028091BA
:1010B0002302981758F5E091240281E08E0F809367
:1010C0002402F0E0ED5FFD4F8081E9CFE091240242
:1010D00081E08E0F809324028091BB00F0E0ED5FF1
:1010E000FD4F808390912402809123029817C8F2CB
:1010F00085E8D8CFE091240281E08E0F809324020E
:101100008091BB00F0E0ED5FFD4F80838091020293
:1011100081115CCF81E08093010284EA8093BC005E
:101120001092000226CF85EC8093BC001092000242
:101130008091FE01803230F4E091FE01F0E0E25255
:10114000FE4F10826091FE0170E0E0912B02F09161
:101150002C028EED91E009951092FE010ACF1092BB
:10116000FF0134CF8F929F92AF92BF92CF92DF92C6
:10117000EF92FF920F931F93CF93DF93CDB7DEB71C
:10118000A1970FB6F894DEBF0FBECDBF6B017C01F7
:10119000F7FE3FC08DE20E94B6058C01222733275F
:1011A000A9012C193D094E095F0919A2CE018196AA
:1011B0007C019AE0892E912CA12CB12CCA01B90195
:1011C000A50194010E94E80D605DF70162937F0123
:1011D000211531054105510589F790E080E03097F0
:1011E00019F0CF010E94CA05800F911FA1960FB67A
:1011F000F894DEBF0FBECDBFDF91CF911F910F914D
:10120000FF90EF90DF90CF90BF90AF909F908F9026
:101210000895AC019B0119A28E010F5D1F4F8AE05A
:10122000C82ED12CE12CF12CCA01B901A7019601DD
:101230000E94E80D605DF80162938F012115310570
:101240004105510589F790E080E0309779F2CF01B0
:101250000E94CA05CBCFFC0180819181009711F0DB
:101260000C944B0D60E070E0CB01089510923C02AD
:1012700010923B0288EE93E0A0E0B0E080933D0244
:1012800090933E02A0933F02B09340022CE231E0E3
:1012900030933A022093390225EC30E03093460235
:1012A0002093450224EC30E030934802209347021B
:1012B00020EC30E030934A022093490221EC30E0E8
:1012C00030934C0220934B0222EC30E030934E02DC
:1012D00020934D0226EC30E03093500220934F02D1
:1012E0001092520210925302109254021092550220
:1012F0001092D9021092D8028093DA029093DB0206
:10130000A093DC02B093DD028EE391E09093D702CC
:101310008093D6021092600310925F038AE591E0F9
:1013200090935E0380935D038FE38093610380E17C
:101330008093660382E0809367031092680387E5D9
:1013400093E00E943D0681E593E00E943D061092E5
:10135000E4021092E8021092E7021092E90280E59E
:1013600091E09093E3028093E202EEEFF2E01082CC
:10137000148213821582369683E0EA33F807B9F7B0
:1013800086E091E0909345038093440382E091E0EE
:10139000909347038093460384E0809348038093AF
:1013A00049038AE091E090934303809342038AE0EB
:1013B00090E090934B0380934A0384EF91E09093E5
:1013C0004D0380934C031092500310924F031092E0
:1013D0003E0310923F03109240031092410310927B
:1013E0004E030895789484B5826084BD84B581608D
:1013F00084BD85B5826085BD85B5816085BD8091E0
:101400006E00816080936E00109281008091810057
:10141000826080938100809181008160809381004F
:10142000809180008160809380008091B100846011
:101430008093B1008091B00081608093B000809172
:101440007A00846080937A0080917A008260809331
:101450007A0080917A00816080937A0080917A008E
:10146000806880937A001092C1000E948D001092D3
:101470003202109231021092300210922F020E941A
:101480009C0385E791E090932E0280932D0286E7DE
:1014900091E090932C0280932B0210926203809132
:1014A0006703823018F098E090936203809365039D
:1014B00062E370E080E090E00E9443036091680383
:1014C0008DE593E00E94610468EE73E080E090E0B7
:1014D0000E94430360E38DE593E00E944C05CBE45A
:1014E000D6E4CE010197F1F760E38DE593E00E9429
:1014F0004C052197F1F760E38DE593E00E944C05E0
:1015000083E592E00197F1F760E28DE593E00E94B8
:101510004C0560916203606240E08DE593E00E94BB
:10152000650584E08093630340E06CE08DE593E023
:101530000E9465050E94BF0582E08093640340E03D
:1015400066E08DE593E00E94650540E062E08DE590
:1015500093E00E9465058BE39FE10197F1F788E036
:101560008093680360E08DE593E00E9461040E942F
:101570008D000E94D705412C512C32014394222426
:101580002A94322C4FE2842E9924939490924E0305
:101590008FB7F8944091350250913602609137022E
:1015A000709138028FBF80913E0390913F03A091CC
:1015B0004003B0914103481B590B6A0B7B0B809190
:1015C0004A0390914B03B0E0A0E084179507A6076B
:1015D000B70708F019C1C0E080914803C81760F44C
:1015E000E0914403F0914503EC0FF11D62E080812E
:1015F0000E94DE02CF5FF0CF10E080914903181700
:1016000008F05FC0E12EF12CE0914603F091470312
:10161000EE0DFF1D61E080810E94DE02E091460335
:10162000F0914703EE0DFF1D60E080810E94AC0247
:10163000D301C201012E04C0880F991FAA1FBB1F2E
:101640000A94D2F75C016C01C094D09400E08091C0
:1016500048030817F8F4C02FD0E0E0914403F0915C
:101660004503EC0FFD1F80810E9480022496CC0F61
:10167000DD1FCE51DD4F892B41F4888199818A2964
:101680009B29998388830F5FE2CF888199818C2180
:101690009D21F7CFE0914603F0914703EE0DFF1D2A
:1016A00061E080810E94AC028091460390914703E3
:1016B000E80EF91E60E0F70180810E94DE021F5FE4
:1016C0009CCFC2EED2E08E01F801878D90A1892BCC
:1016D00021F4148E368E258E11A20A5F1F4FF3E07F
:1016E0000E311F0789F7F12C80914803F81608F096
:1016F00053C0E12C8F2D90E0880F991F9C0126513B
:101700003D4F690120914903E21608F043C0F601FC
:10171000608171810E2C02C0769567950A94E2F77C
:10172000F29E900111242E0D311DE2EEF2E080E0D8
:10173000458D568D2417350709F49AC18F5F36966B
:101740008A30B1F760FF24C0E2EEF2E090E080E082
:10175000448D411118C0E0914203F0914303E20F20
:10176000F31F408156E0589FF001599FF00D11245E
:10177000EE51FD4F448F368F258F10A2178E61E0FA
:101780000E94D80005C0019636968A30910501F76F
:10179000E394B8CFF394A8CF80E099A19111892F59
:1017A00026960C171D07C9F79FB7F894409135028C
:1017B0005091360260913702709138029FBF40937A
:1017C0003E0350933F03609340037093410388238B
:1017D000D9F0809103038823B9F08091010390919F
:1017E0000203019789F46091FE02611110C040E08C
:1017F00050E0452B09F4CACE0E94B401882309F4B5
:10180000C3CE0E940000BECE10924E03F0CF6234D1
:1018100009F468C034F56D3309F496C0613449F1B8
:10182000809133028F5F80933302863000F780917E
:101830000001882309F40BC187E593E00E94890623
:1018400060E080E00E947C0540915B0350915C0366
:1018500060915703709158038DE593E00E94480111
:10186000C6CF643409F45DC014F2653409F4BFCF07
:10187000D7CF809134028F5F80933402823009F198
:1018800070F4813009F0B3CF8DE28093010160E004
:1018900087E00E947C058DE20E94B605A8CF8330C8
:1018A000C9F0843009F0A3CFEBE2E093010160E0DE
:1018B00087E00E947C058BE20E94B60510923402FC
:1018C00096CF9AE29093010160E087E00E947C0548
:1018D0008AE2E2CF8092010160E087E00E947C050D
:1018E0008FE2DACF8091000150E040E089258093BB
:1018F000000110923302882359F066E070E090E016
:1019000080E00E94FA0587E593E00E9466066FCFAB
:101910006EE070E089E090E00E94FA0581E593E0D6
:10192000F4CF0E94BF050E94D70587E593E00E948F
:10193000660681E593E00E946606109233021092DB
:1019400034029092000153CF80915B0390915C032D
:10195000892B09F44CCFE0915703F0915803808113
:10196000882309F444CF8091550390915603892B25
:1019700009F43DCF8091510390915203FC012081E5
:10198000222309F434CF62E771E00E941A10892BF8
:1019900009F42DCF41E050E060E170E090E080E09C
:1019A0000E94FA0561E080E00E947C0580910101BF
:1019B0008B3249F194F48A3209F019CF87E593E02C
:1019C0000E942B096B017C0181E593E00E942B09A9
:1019D000A70196010E94D80D24C08D3229F18F32C3
:1019E00009F005CF87E593E00E942B096B017C018C
:1019F00081E593E00E942B099B01AC01C701B60170
:101A00000E940A0E21C087E593E00E942B096B011A
:101A10007C0181E593E00E942B096C0D7D1D8E1DDC
:101A20009F1D0E94B208E3CE87E593E00E942B0938
:101A30006B017C0181E593E00E942B09A7019601CF
:101A4000261B370B480B590BCA01B901EACF81E5B8
:101A500093E00E94890660E089E00E947C05409145
:101A60005503509156036091510370915203F4CE87
:101A7000617086CE8091510390915203009711F0CE
:101A80000E94CB0E8091570390915803009711F05C
:101A90000C94CB0E08951F93FC0199278827BC0155
:101AA000E89411911032E9F3193010F01E30C8F3A8
:101AB0001B3251F01D3249F4689406C00E94720D29
:101AC000610F711D811D911D119110531A30B0F3DA
:101AD0003EF490958095709561957F4F8F4F9F4F05
:101AE0001F910895592F482F372F262F660F771FE4
:101AF000881F991F660F771F881F991F620F731F1A
:101B0000841F951F660F771F881F991F08950E94D5
:101B1000C90DA59F900DB49F900DA49F800D911DA0
:101B2000112408952F923F924F925F926F927F926D
:101B30008F929F92AF92BF92CF92DF92EF92FF92DD
:101B40000F931F93CF93DF93CDB7DEB7CA1BDB0B89
:101B50000FB6F894DEBF0FBECDBF09942A8839882E
:101B600048885F846E847D848C849B84AA84B98435
:101B7000C884DF80EE80FD800C811B81AA81B98141
:101B8000CE0FD11D0FB6F894DEBF0FBECDBFED0155
:101B90000895A29FB001B39FC001A39F700D811D46
:101BA0001124911DB29F700D811D1124911D089566
:101BB000DB018F939F930E94870DBF91AF91A29FEE
:101BC000800D911DA39F900DB29F900D112408953B
:101BD000A1E21A2EAA1BBB1BFD010DC0AA1FBB1F31
:101BE000EE1FFF1FA217B307E407F50720F0A21BA3
:101BF000B30BE40BF50B661F771F881F991F1A9410
:101C000069F760957095809590959B01AC01BD0139
:101C1000CF010895052E97FB1EF400940E94210E1B
:101C200057FD07D00E94E80D07FC03D04EF40C943A
:101C3000210E50954095309521953F4F4F4F5F4F66
:101C4000089590958095709561957F4F8F4F9F4F28
:101C50000895EE0FFF1F0590F491E02D09940F9366
:101C60001F93CF93DF938230910510F482E090E0D0
:101C7000E0916B03F0916C0330E020E0B0E0A0E075
:101C8000309799F42115310509F44AC0281B390B06
:101C900024303105D8F58A819B816115710589F160
:101CA000FB0193838283FE0111C040815181028137
:101CB000138148175907E0F04817590799F410970E
:101CC00061F012960C93129713961C933296CF01E3
:101CD000DF91CF911F910F91089500936B031093A3
:101CE0006C03F4CF2115310551F04217530738F03A
:101CF000A901DB019A01BD01DF01F801C1CFEF01AC
:101D0000F9CF90936C0380936B03CDCFFE01E20F6C
:101D1000F31F819391932250310939832883D7CFC0
:101D20002091690330916A03232B41F420911C0117
:101D300030911D0130936A032093690320911A01A9
:101D400030911B012115310541F42DB73EB740916B
:101D50001E0150911F01241B350BE0916903F09186
:101D60006A03E217F307A0F42E1B3F0B281739076D
:101D700078F0AC014E5F5F4F2417350748F04E0FE7
:101D80005F1F50936A0340936903819391939FCFA0
:101D9000F0E0E0E09CCFCF93DF930097E9F0FC0107
:101DA000329713821282A0916B03B0916C03ED0104
:101DB00030E020E01097A1F420813181820F931F41
:101DC0002091690330916A032817390709F061C02F
:101DD000F0936A03E0936903DF91CF910895EA01DC
:101DE000CE17DF07E8F54A815B819E014115510559
:101DF000B1F7E901FB83EA8349915991C40FD51FDB
:101E0000EC17FD0761F4808191810296840F951F84
:101E1000E90199838883828193819B838A83F0E09F
:101E2000E0E012968D919C9113970097B9F52D9152
:101E30003C911197CD010296820F931F2091690367
:101E400030916A032817390739F6309751F5109207
:101E50006C0310926B03B0936A03A0936903BCCF29
:101E6000D383C28340815181840F951FC817D9073E
:101E700061F44E5F5F4F88819981480F591F5183EC
:101E800040838A819B81938382832115310509F0E8
:101E9000B0CFF0936C03E0936B039ECFFD01DC01A8
:101EA000C0CF13821282D7CFB0E0A0E0EAE5FFE016
:101EB0000C94940D8C01009751F4CB010E942F0ECD
:101EC0008C01C801CDB7DEB7E0E10C94B00DFC0188
:101ED000E60FF71F9C0122503109E217F30708F4BF
:101EE0009DC0D901CD91DC911197C617D70798F005
:101EF000C530D10530F3CE0104978617970708F354
:101F0000C61BD70B2297C193D1936D937C93CF01BE
:101F10000E94CB0ED6CF5B01AC1ABD0A4C018C0ED1
:101F20009D1EA0916B03B0916C03512C412CF12CA0
:101F3000E12C109731F58091690390916A0388151F
:101F4000990509F05CC04616570608F058C0809104
:101F50001A0190911B01009741F48DB79EB74091F3
:101F60001E0150911F01841B950BE817F90708F01B
:101F700055C0F0936A03E0936903F90171836083AC
:101F8000A0CF8D919C91119712966C9012971396F9
:101F90007C901397A815B90559F56C0142E0C40E61
:101FA000D11CCA14DB0420F1AC014A195B09DA0127
:101FB0001296159780F06282738251834083D90113
:101FC0006D937C93E114F10471F0D7011396FC93A7
:101FD000EE93129776CF22968C0F9D1FF901918375
:101FE0008083F301EFCFF0936C03E0936B0369CF31
:101FF0004816590608F42C017D01D3019ACFCB0174
:102000000E942F0E7C01009749F0AE01B8010E949A
:102010001110C8010E94CB0E870153CF10E000E0E1
:1020200050CFFB01DC0102C001900D9241505040A5
:10203000D8F70895FB01DC018D9101908019011002
:10204000D9F3990B0895FB01DC0101900D9200205A
:10205000E1F7089510E0C2E6D0E004C0FE010E945E
:0E206000290E2196C336D107C9F7F894FFCF99
:10206E00012B0607080902030405313233413435CA
:10207E003642373839434430453D00006D03800009
:10208E00000040001400540000000000EA01480166
:10209E0077013702A80186019A0100000000320480
:1020AE0005044905DB03FE03EB03DC03000000001F
:1020BE001A03DA02A90200000000B0054801490522
:1020CE00480543616C63756C617465204954210049
:0420DE0020003000AE
:00000001FF
